{
  "contractName": "TokenMinter",
  "abi": [
    {
      "anonymous": false,
      "inputs": [
        {
          "indexed": false,
          "internalType": "address",
          "name": "tokenOwner",
          "type": "address"
        },
        {
          "indexed": false,
          "internalType": "address",
          "name": "tokenAddress",
          "type": "address"
        }
      ],
      "name": "CreateToken",
      "type": "event"
    },
    {
      "inputs": [
        {
          "internalType": "address",
          "name": "tokenOwner",
          "type": "address"
        },
        {
          "internalType": "string",
          "name": "tokenCid",
          "type": "string"
        }
      ],
      "name": "mint",
      "outputs": [
        {
          "internalType": "address",
          "name": "newTokenAddress",
          "type": "address"
        }
      ],
      "stateMutability": "nonpayable",
      "type": "function"
    },
    {
      "inputs": [],
      "name": "getTotalSupply",
      "outputs": [
        {
          "internalType": "uint256",
          "name": "",
          "type": "uint256"
        }
      ],
      "stateMutability": "view",
      "type": "function"
    },
    {
      "inputs": [],
      "name": "getCurrentSupply",
      "outputs": [
        {
          "internalType": "uint256",
          "name": "",
          "type": "uint256"
        }
      ],
      "stateMutability": "view",
      "type": "function"
    },
    {
      "inputs": [],
      "name": "getOwnTokenAdress",
      "outputs": [
        {
          "internalType": "address[]",
          "name": "",
          "type": "address[]"
        }
      ],
      "stateMutability": "view",
      "type": "function"
    },
    {
      "inputs": [],
      "name": "getMintHistory",
      "outputs": [
        {
          "components": [
            {
              "internalType": "uint256",
              "name": "time",
              "type": "uint256"
            },
            {
              "internalType": "address",
              "name": "tokenAddress",
              "type": "address"
            }
          ],
          "internalType": "struct TokenMinter.mintResult[]",
          "name": "",
          "type": "tuple[]"
        }
      ],
      "stateMutability": "view",
      "type": "function"
    }
  ],
  "bytecode": "0x6080604052600060035561271060045534801561001b57600080fd5b506119958061002b6000396000f3fe60806040523480156200001157600080fd5b50600436106200005e5760003560e01c8063364de50314620000635780634f3e1efc1462000085578063c48e50b514620000a7578063c4e41b2214620000c9578063d0def52114620000eb575b600080fd5b6200006d62000121565b6040516200007c919062000765565b60405180910390f35b6200008f620001e2565b6040516200009e91906200079a565b60405180910390f35b620000b1620001ec565b604051620000c0919062000874565b60405180910390f35b620000d3620002b9565b604051620000e291906200079a565b60405180910390f35b62000109600480360381019062000103919062000941565b620002c3565b604051620001189190620009bc565b60405180910390f35b60606002805480602002602001604051908101604052809291908181526020016000905b82821015620001d95783829060005260206000209060020201604051806040016040529081600082015481526020016001820160009054906101000a900473ffffffffffffffffffffffffffffffffffffffff1673ffffffffffffffffffffffffffffffffffffffff1673ffffffffffffffffffffffffffffffffffffffff16815250508152602001906001019062000145565b50505050905090565b6000600354905090565b6060600160003373ffffffffffffffffffffffffffffffffffffffff1673ffffffffffffffffffffffffffffffffffffffff168152602001908152602001600020805480602002602001604051908101604052809291908181526020018280548015620002af57602002820191906000526020600020905b8160009054906101000a900473ffffffffffffffffffffffffffffffffffffffff1673ffffffffffffffffffffffffffffffffffffffff168152602001906001019080831162000264575b5050505050905090565b6000600454905090565b6000600454600354106200030e576040517f08c379a0000000000000000000000000000000000000000000000000000000008152600401620003059062000a3a565b60405180910390fd5b600073ffffffffffffffffffffffffffffffffffffffff16600084846040516200033a92919062000a9f565b908152602001604051809103902060009054906101000a900473ffffffffffffffffffffffffffffffffffffffff1673ffffffffffffffffffffffffffffffffffffffff1614620003c2576040517f08c379a0000000000000000000000000000000000000000000000000000000008152600401620003b99062000b0a565b60405180910390fd5b838383604051620003d39062000607565b620003e19392919062000b70565b604051809103906000f080158015620003fe573d6000803e3d6000fd5b50905080600084846040516200041692919062000a9f565b908152602001604051809103902060006101000a81548173ffffffffffffffffffffffffffffffffffffffff021916908373ffffffffffffffffffffffffffffffffffffffff160217905550600160003373ffffffffffffffffffffffffffffffffffffffff1673ffffffffffffffffffffffffffffffffffffffff168152602001908152602001600020819080600181540180825580915050600190039060005260206000200160009091909190916101000a81548173ffffffffffffffffffffffffffffffffffffffff021916908373ffffffffffffffffffffffffffffffffffffffff160217905550600260405180604001604052804281526020018373ffffffffffffffffffffffffffffffffffffffff1681525090806001815401808255809150506001900390600052602060002090600202016000909190919091506000820151816000015560208201518160010160006101000a81548173ffffffffffffffffffffffffffffffffffffffff021916908373ffffffffffffffffffffffffffffffffffffffff160217905550505060036000815480929190620005c09062000bd5565b91905055507f62ec089d6c661de888091dd8fd0550160f8a27e337ad3f847b01a94d7064207f8482604051620005f892919062000c22565b60405180910390a19392505050565b610d108062000c5083390190565b600081519050919050565b600082825260208201905092915050565b6000819050602082019050919050565b6000819050919050565b620006568162000641565b82525050565b600073ffffffffffffffffffffffffffffffffffffffff82169050919050565b600062000689826200065c565b9050919050565b6200069b816200067c565b82525050565b604082016000820151620006b960008501826200064b565b506020820151620006ce602085018262000690565b50505050565b6000620006e28383620006a1565b60408301905092915050565b6000602082019050919050565b6000620007088262000615565b62000714818562000620565b9350620007218362000631565b8060005b83811015620007585781516200073c8882620006d4565b97506200074983620006ee565b92505060018101905062000725565b5085935050505092915050565b60006020820190508181036000830152620007818184620006fb565b905092915050565b620007948162000641565b82525050565b6000602082019050620007b1600083018462000789565b92915050565b600081519050919050565b600082825260208201905092915050565b6000819050602082019050919050565b6000620007f1838362000690565b60208301905092915050565b6000602082019050919050565b60006200081782620007b7565b620008238185620007c2565b93506200083083620007d3565b8060005b83811015620008675781516200084b8882620007e3565b97506200085883620007fd565b92505060018101905062000834565b5085935050505092915050565b600060208201905081810360008301526200089081846200080a565b905092915050565b600080fd5b600080fd5b620008ad816200067c565b8114620008b957600080fd5b50565b600081359050620008cd81620008a2565b92915050565b600080fd5b600080fd5b600080fd5b60008083601f840112620008fb57620008fa620008d3565b5b8235905067ffffffffffffffff8111156200091b576200091a620008d8565b5b6020830191508360018202830111156200093a5762000939620008dd565b5b9250929050565b6000806000604084860312156200095d576200095c62000898565b5b60006200096d86828701620008bc565b935050602084013567ffffffffffffffff8111156200099157620009906200089d565b5b6200099f86828701620008e2565b92509250509250925092565b620009b6816200067c565b82525050565b6000602082019050620009d36000830184620009ab565b92915050565b600082825260208201905092915050565b7f4572726f723a204d6178696d756d20746f6b656e206372656174656400000000600082015250565b600062000a22601c83620009d9565b915062000a2f82620009ea565b602082019050919050565b6000602082019050818103600083015262000a558162000a13565b9050919050565b600081905092915050565b82818337600083830152505050565b600062000a84838562000a5c565b935062000a9383858462000a67565b82840190509392505050565b600062000aae82848662000a76565b91508190509392505050565b7f4572726f723a20546f6b656e206e616d65206e6f7420756e6971756500000000600082015250565b600062000af2601c83620009d9565b915062000aff8262000aba565b602082019050919050565b6000602082019050818103600083015262000b258162000ae3565b9050919050565b6000601f19601f8301169050919050565b600062000b4b8385620009d9565b935062000b5a83858462000a67565b62000b658362000b2c565b840190509392505050565b600060408201905062000b876000830186620009ab565b818103602083015262000b9c81848662000b3d565b9050949350505050565b7f4e487b7100000000000000000000000000000000000000000000000000000000600052601160045260246000fd5b600062000be28262000641565b91507fffffffffffffffffffffffffffffffffffffffffffffffffffffffffffffffff820362000c175762000c1662000ba6565b5b600182019050919050565b600060408201905062000c396000830185620009ab565b62000c486020830184620009ab565b939250505056fe60806040523480156200001157600080fd5b5060405162000d1038038062000d1083398181016040528101906200003791906200043a565b336000806101000a81548173ffffffffffffffffffffffffffffffffffffffff021916908373ffffffffffffffffffffffffffffffffffffffff160217905550600042905082600160006101000a81548173ffffffffffffffffffffffffffffffffffffffff021916908373ffffffffffffffffffffffffffffffffffffffff1602179055508160029080519060200190620000d592919062000188565b50600360405180604001604052808381526020018573ffffffffffffffffffffffffffffffffffffffff1681525090806001815401808255809150506001900390600052602060002090600202016000909190919091506000820151816000015560208201518160010160006101000a81548173ffffffffffffffffffffffffffffffffffffffff021916908373ffffffffffffffffffffffffffffffffffffffff160217905550505050505062000504565b8280546200019690620004cf565b90600052602060002090601f016020900481019282620001ba576000855562000206565b82601f10620001d557805160ff191683800117855562000206565b8280016001018555821562000206579182015b8281111562000205578251825591602001919060010190620001e8565b5b50905062000215919062000219565b5090565b5b80821115620002345760008160009055506001016200021a565b5090565b6000604051905090565b600080fd5b600080fd5b600073ffffffffffffffffffffffffffffffffffffffff82169050919050565b600062000279826200024c565b9050919050565b6200028b816200026c565b81146200029757600080fd5b50565b600081519050620002ab8162000280565b92915050565b600080fd5b600080fd5b6000601f19601f8301169050919050565b7f4e487b7100000000000000000000000000000000000000000000000000000000600052604160045260246000fd5b6200030682620002bb565b810181811067ffffffffffffffff82111715620003285762000327620002cc565b5b80604052505050565b60006200033d62000238565b90506200034b8282620002fb565b919050565b600067ffffffffffffffff8211156200036e576200036d620002cc565b5b6200037982620002bb565b9050602081019050919050565b60005b83811015620003a657808201518184015260208101905062000389565b83811115620003b6576000848401525b50505050565b6000620003d3620003cd8462000350565b62000331565b905082815260208101848484011115620003f257620003f1620002b6565b5b620003ff84828562000386565b509392505050565b600082601f8301126200041f576200041e620002b1565b5b815162000431848260208601620003bc565b91505092915050565b6000806040838503121562000454576200045362000242565b5b600062000464858286016200029a565b925050602083015167ffffffffffffffff81111562000488576200048762000247565b5b620004968582860162000407565b9150509250929050565b7f4e487b7100000000000000000000000000000000000000000000000000000000600052602260045260246000fd5b60006002820490506001821680620004e857607f821691505b602082108103620004fe57620004fd620004a0565b5b50919050565b6107fc80620005146000396000f3fe608060405234801561001057600080fd5b506004361061004c5760003560e01c806307c538d0146100515780631a6952301461006f5780633ece939c1461008b578063a18a186b146100a9575b600080fd5b6100596100c7565b6040516100669190610538565b60405180910390f35b6100896004803603810190610084919061058b565b610186565b005b610093610344565b6040516100a09190610651565b60405180910390f35b6100b16103d6565b6040516100be9190610682565b60405180910390f35b60606003805480602002602001604051908101604052809291908181526020016000905b8282101561017d5783829060005260206000209060020201604051806040016040529081600082015481526020016001820160009054906101000a900473ffffffffffffffffffffffffffffffffffffffff1673ffffffffffffffffffffffffffffffffffffffff1673ffffffffffffffffffffffffffffffffffffffff1681525050815260200190600101906100eb565b50505050905090565b600160009054906101000a900473ffffffffffffffffffffffffffffffffffffffff1673ffffffffffffffffffffffffffffffffffffffff163373ffffffffffffffffffffffffffffffffffffffff1614610216576040517f08c379a000000000000000000000000000000000000000000000000000000000815260040161020d9061070f565b60405180910390fd5b80600160006101000a81548173ffffffffffffffffffffffffffffffffffffffff021916908373ffffffffffffffffffffffffffffffffffffffff1602179055506000429050600360405180604001604052808381526020018473ffffffffffffffffffffffffffffffffffffffff1681525090806001815401808255809150506001900390600052602060002090600202016000909190919091506000820151816000015560208201518160010160006101000a81548173ffffffffffffffffffffffffffffffffffffffff021916908373ffffffffffffffffffffffffffffffffffffffff16021790555050507f6dc96bb28019f8271320f6adb7b16d40350bcf0560cdf942b19726013d317c053383306040516103389392919061072f565b60405180910390a15050565b60606002805461035390610795565b80601f016020809104026020016040519081016040528092919081815260200182805461037f90610795565b80156103cc5780601f106103a1576101008083540402835291602001916103cc565b820191906000526020600020905b8154815290600101906020018083116103af57829003601f168201915b5050505050905090565b6000600160009054906101000a900473ffffffffffffffffffffffffffffffffffffffff16905090565b600081519050919050565b600082825260208201905092915050565b6000819050602082019050919050565b6000819050919050565b61043f8161042c565b82525050565b600073ffffffffffffffffffffffffffffffffffffffff82169050919050565b600061047082610445565b9050919050565b61048081610465565b82525050565b60408201600082015161049c6000850182610436565b5060208201516104af6020850182610477565b50505050565b60006104c18383610486565b60408301905092915050565b6000602082019050919050565b60006104e582610400565b6104ef818561040b565b93506104fa8361041c565b8060005b8381101561052b57815161051288826104b5565b975061051d836104cd565b9250506001810190506104fe565b5085935050505092915050565b6000602082019050818103600083015261055281846104da565b905092915050565b600080fd5b61056881610465565b811461057357600080fd5b50565b6000813590506105858161055f565b92915050565b6000602082840312156105a1576105a061055a565b5b60006105af84828501610576565b91505092915050565b600081519050919050565b600082825260208201905092915050565b60005b838110156105f25780820151818401526020810190506105d7565b83811115610601576000848401525b50505050565b6000601f19601f8301169050919050565b6000610623826105b8565b61062d81856105c3565b935061063d8185602086016105d4565b61064681610607565b840191505092915050565b6000602082019050818103600083015261066b8184610618565b905092915050565b61067c81610465565b82525050565b60006020820190506106976000830184610673565b92915050565b7f4f6e6c79206f776e65722063616e207472616e736665722074686520746f6b6560008201527f6e00000000000000000000000000000000000000000000000000000000000000602082015250565b60006106f96021836105c3565b91506107048261069d565b604082019050919050565b60006020820190508181036000830152610728816106ec565b9050919050565b60006060820190506107446000830186610673565b6107516020830185610673565b61075e6040830184610673565b949350505050565b7f4e487b7100000000000000000000000000000000000000000000000000000000600052602260045260246000fd5b600060028204905060018216806107ad57607f821691505b6020821081036107c0576107bf610766565b5b5091905056fea2646970667358221220619bce3fc7ee21a61ecdb01d45318ca24e13ec1b7cc6f5a69769cfdd09de11f464736f6c634300080d0033a26469706673582212203e5b93063bb5b239b476ec4970ca3ae176a3ee9ff608d7d1565c3533ca86fd8764736f6c634300080d0033",
  "immutableReferences": {},
  "source": "// SPDX-License-Identifier: GPL-3.0\r\npragma solidity ^0.8.2;\r\n\r\nimport \"./Token.sol\";\r\n\r\ncontract TokenMinter{\r\n    struct mintResult {\r\n        uint time;\r\n        address tokenAddress;\r\n    }\r\n    mapping (string => address) private tokenMap;\r\n    mapping (address => address[]) private ownership;\r\n    mintResult[] private mintHistory;\r\n    uint private currentSupply = 0;\r\n    uint private totalSupply = 10000;\r\n\r\n    event CreateToken(address tokenOwner, address tokenAddress);\r\n\r\n    function mint(address tokenOwner, string calldata tokenCid) external returns (address newTokenAddress) {\r\n        require(currentSupply < totalSupply, \"Error: Maximum token created\");\r\n        require(tokenMap[tokenCid] == address(0), \"Error: Token name not unique\");\r\n        \r\n        newTokenAddress = address(new Token(tokenOwner, tokenCid));\r\n        tokenMap[tokenCid] = newTokenAddress;\r\n        ownership[msg.sender].push(newTokenAddress);\r\n        mintHistory.push(mintResult(block.timestamp, newTokenAddress));\r\n        currentSupply++;\r\n\r\n        emit CreateToken(tokenOwner, newTokenAddress);\r\n    }\r\n\r\n    function getTotalSupply() external view returns (uint) {\r\n        return totalSupply;\r\n    }\r\n\r\n    function getCurrentSupply() external view returns (uint) {\r\n        return currentSupply;\r\n    }\r\n\r\n    function getOwnTokenAdress() external view returns (address[] memory) {\r\n        return ownership[msg.sender];\r\n    }\r\n\r\n    function getMintHistory() external view returns (mintResult[] memory) {\r\n        return mintHistory;\r\n    }\r\n}",
  "sourcePath": "D:\\Blockchain\\DeployToRinkerbu\\contracts\\TokenMinter.sol",
  "compiler": {
    "name": "solc",
    "version": "0.8.13+commit.abaa5c0e.Emscripten.clang"
  },
  "schemaVersion": "3.4.7",
  "updatedAt": "2022-05-11T08:35:31.776Z",
  "devdoc": {
    "kind": "dev",
    "methods": {},
    "version": 1
  },
  "userdoc": {
    "kind": "user",
    "methods": {},
    "version": 1
  }
}