{
  "contractName": "Token",
  "abi": [
    {
      "inputs": [
        {
          "internalType": "address",
          "name": "owner",
          "type": "address"
        },
        {
          "internalType": "string",
          "name": "newCid",
          "type": "string"
        }
      ],
      "stateMutability": "nonpayable",
      "type": "constructor"
    },
    {
      "anonymous": false,
      "inputs": [
        {
          "indexed": false,
          "internalType": "address",
          "name": "from",
          "type": "address"
        },
        {
          "indexed": false,
          "internalType": "address",
          "name": "to",
          "type": "address"
        },
        {
          "indexed": false,
          "internalType": "address",
          "name": "token_address",
          "type": "address"
        }
      ],
      "name": "TransferToken",
      "type": "event"
    },
    {
      "inputs": [
        {
          "internalType": "address",
          "name": "to",
          "type": "address"
        }
      ],
      "name": "transfer",
      "outputs": [],
      "stateMutability": "nonpayable",
      "type": "function"
    },
    {
      "inputs": [],
      "name": "getNameCid",
      "outputs": [
        {
          "internalType": "string",
          "name": "",
          "type": "string"
        }
      ],
      "stateMutability": "view",
      "type": "function"
    },
    {
      "inputs": [],
      "name": "getCurrentOwner",
      "outputs": [
        {
          "internalType": "address",
          "name": "",
          "type": "address"
        }
      ],
      "stateMutability": "view",
      "type": "function"
    },
    {
      "inputs": [],
      "name": "getOwnerHistory",
      "outputs": [
        {
          "components": [
            {
              "internalType": "uint256",
              "name": "time",
              "type": "uint256"
            },
            {
              "internalType": "address",
              "name": "owner",
              "type": "address"
            }
          ],
          "internalType": "struct Token.ownership[]",
          "name": "",
          "type": "tuple[]"
        }
      ],
      "stateMutability": "view",
      "type": "function"
    }
  ],
  "bytecode": "0x60806040523480156200001157600080fd5b5060405162000d1038038062000d1083398181016040528101906200003791906200043a565b336000806101000a81548173ffffffffffffffffffffffffffffffffffffffff021916908373ffffffffffffffffffffffffffffffffffffffff160217905550600042905082600160006101000a81548173ffffffffffffffffffffffffffffffffffffffff021916908373ffffffffffffffffffffffffffffffffffffffff1602179055508160029080519060200190620000d592919062000188565b50600360405180604001604052808381526020018573ffffffffffffffffffffffffffffffffffffffff1681525090806001815401808255809150506001900390600052602060002090600202016000909190919091506000820151816000015560208201518160010160006101000a81548173ffffffffffffffffffffffffffffffffffffffff021916908373ffffffffffffffffffffffffffffffffffffffff160217905550505050505062000504565b8280546200019690620004cf565b90600052602060002090601f016020900481019282620001ba576000855562000206565b82601f10620001d557805160ff191683800117855562000206565b8280016001018555821562000206579182015b8281111562000205578251825591602001919060010190620001e8565b5b50905062000215919062000219565b5090565b5b80821115620002345760008160009055506001016200021a565b5090565b6000604051905090565b600080fd5b600080fd5b600073ffffffffffffffffffffffffffffffffffffffff82169050919050565b600062000279826200024c565b9050919050565b6200028b816200026c565b81146200029757600080fd5b50565b600081519050620002ab8162000280565b92915050565b600080fd5b600080fd5b6000601f19601f8301169050919050565b7f4e487b7100000000000000000000000000000000000000000000000000000000600052604160045260246000fd5b6200030682620002bb565b810181811067ffffffffffffffff82111715620003285762000327620002cc565b5b80604052505050565b60006200033d62000238565b90506200034b8282620002fb565b919050565b600067ffffffffffffffff8211156200036e576200036d620002cc565b5b6200037982620002bb565b9050602081019050919050565b60005b83811015620003a657808201518184015260208101905062000389565b83811115620003b6576000848401525b50505050565b6000620003d3620003cd8462000350565b62000331565b905082815260208101848484011115620003f257620003f1620002b6565b5b620003ff84828562000386565b509392505050565b600082601f8301126200041f576200041e620002b1565b5b815162000431848260208601620003bc565b91505092915050565b6000806040838503121562000454576200045362000242565b5b600062000464858286016200029a565b925050602083015167ffffffffffffffff81111562000488576200048762000247565b5b620004968582860162000407565b9150509250929050565b7f4e487b7100000000000000000000000000000000000000000000000000000000600052602260045260246000fd5b60006002820490506001821680620004e857607f821691505b602082108103620004fe57620004fd620004a0565b5b50919050565b6107fc80620005146000396000f3fe608060405234801561001057600080fd5b506004361061004c5760003560e01c806307c538d0146100515780631a6952301461006f5780633ece939c1461008b578063a18a186b146100a9575b600080fd5b6100596100c7565b6040516100669190610538565b60405180910390f35b6100896004803603810190610084919061058b565b610186565b005b610093610344565b6040516100a09190610651565b60405180910390f35b6100b16103d6565b6040516100be9190610682565b60405180910390f35b60606003805480602002602001604051908101604052809291908181526020016000905b8282101561017d5783829060005260206000209060020201604051806040016040529081600082015481526020016001820160009054906101000a900473ffffffffffffffffffffffffffffffffffffffff1673ffffffffffffffffffffffffffffffffffffffff1673ffffffffffffffffffffffffffffffffffffffff1681525050815260200190600101906100eb565b50505050905090565b600160009054906101000a900473ffffffffffffffffffffffffffffffffffffffff1673ffffffffffffffffffffffffffffffffffffffff163373ffffffffffffffffffffffffffffffffffffffff1614610216576040517f08c379a000000000000000000000000000000000000000000000000000000000815260040161020d9061070f565b60405180910390fd5b80600160006101000a81548173ffffffffffffffffffffffffffffffffffffffff021916908373ffffffffffffffffffffffffffffffffffffffff1602179055506000429050600360405180604001604052808381526020018473ffffffffffffffffffffffffffffffffffffffff1681525090806001815401808255809150506001900390600052602060002090600202016000909190919091506000820151816000015560208201518160010160006101000a81548173ffffffffffffffffffffffffffffffffffffffff021916908373ffffffffffffffffffffffffffffffffffffffff16021790555050507f6dc96bb28019f8271320f6adb7b16d40350bcf0560cdf942b19726013d317c053383306040516103389392919061072f565b60405180910390a15050565b60606002805461035390610795565b80601f016020809104026020016040519081016040528092919081815260200182805461037f90610795565b80156103cc5780601f106103a1576101008083540402835291602001916103cc565b820191906000526020600020905b8154815290600101906020018083116103af57829003601f168201915b5050505050905090565b6000600160009054906101000a900473ffffffffffffffffffffffffffffffffffffffff16905090565b600081519050919050565b600082825260208201905092915050565b6000819050602082019050919050565b6000819050919050565b61043f8161042c565b82525050565b600073ffffffffffffffffffffffffffffffffffffffff82169050919050565b600061047082610445565b9050919050565b61048081610465565b82525050565b60408201600082015161049c6000850182610436565b5060208201516104af6020850182610477565b50505050565b60006104c18383610486565b60408301905092915050565b6000602082019050919050565b60006104e582610400565b6104ef818561040b565b93506104fa8361041c565b8060005b8381101561052b57815161051288826104b5565b975061051d836104cd565b9250506001810190506104fe565b5085935050505092915050565b6000602082019050818103600083015261055281846104da565b905092915050565b600080fd5b61056881610465565b811461057357600080fd5b50565b6000813590506105858161055f565b92915050565b6000602082840312156105a1576105a061055a565b5b60006105af84828501610576565b91505092915050565b600081519050919050565b600082825260208201905092915050565b60005b838110156105f25780820151818401526020810190506105d7565b83811115610601576000848401525b50505050565b6000601f19601f8301169050919050565b6000610623826105b8565b61062d81856105c3565b935061063d8185602086016105d4565b61064681610607565b840191505092915050565b6000602082019050818103600083015261066b8184610618565b905092915050565b61067c81610465565b82525050565b60006020820190506106976000830184610673565b92915050565b7f4f6e6c79206f776e65722063616e207472616e736665722074686520746f6b6560008201527f6e00000000000000000000000000000000000000000000000000000000000000602082015250565b60006106f96021836105c3565b91506107048261069d565b604082019050919050565b60006020820190508181036000830152610728816106ec565b9050919050565b60006060820190506107446000830186610673565b6107516020830185610673565b61075e6040830184610673565b949350505050565b7f4e487b7100000000000000000000000000000000000000000000000000000000600052602260045260246000fd5b600060028204905060018216806107ad57607f821691505b6020821081036107c0576107bf610766565b5b5091905056fea2646970667358221220619bce3fc7ee21a61ecdb01d45318ca24e13ec1b7cc6f5a69769cfdd09de11f464736f6c634300080d0033",
  "immutableReferences": {},
  "source": "// SPDX-License-Identifier: GPL-3.0\r\npragma solidity ^0.8.2;\r\n\r\nimport \"./TokenMinter.sol\";\r\n\r\ncontract Token {\r\n    struct ownership {\r\n        uint time;\r\n        address owner;\r\n    }\r\n\r\n    TokenMinter private minter;\r\n    address private ownerId;\r\n    string private nameCid;\r\n    ownership[] private ownerHistory;\r\n\r\n    constructor(address owner, string memory newCid) {\r\n        minter = TokenMinter(msg.sender);\r\n        uint currentTime = block.timestamp;\r\n        ownerId = owner;\r\n        nameCid = newCid;\r\n        ownerHistory.push(ownership(currentTime, owner));\r\n    }\r\n\r\n    event TransferToken(address from, address to, address token_address);\r\n\r\n    function transfer(address to) external {\r\n        require(msg.sender == ownerId, \"Only owner can transfer the token\");\r\n        ownerId = to;\r\n        uint currentTime = block.timestamp;\r\n        ownerHistory.push(ownership(currentTime, to));\r\n        emit TransferToken(msg.sender, to, address(this));\r\n    }\r\n\r\n    function getNameCid() external view returns (string memory) {\r\n        return nameCid;\r\n    }\r\n\r\n    function getCurrentOwner() external view returns (address) {\r\n        return ownerId;\r\n    }\r\n\r\n    function getOwnerHistory() external view returns (ownership[] memory) {\r\n        return ownerHistory;\r\n    }\r\n}",
  "sourcePath": "D:\\Blockchain\\DeployToRinkerbu\\contracts\\Token.sol",
  "compiler": {
    "name": "solc",
    "version": "0.8.13+commit.abaa5c0e.Emscripten.clang"
  },
  "schemaVersion": "3.4.7",
  "updatedAt": "2022-05-11T08:35:31.763Z",
  "devdoc": {
    "kind": "dev",
    "methods": {},
    "version": 1
  },
  "userdoc": {
    "kind": "user",
    "methods": {},
    "version": 1
  }
}