{
  "contractName": "TokenMinter",
  "abi": [
    {
      "anonymous": false,
      "inputs": [
        {
          "indexed": false,
          "internalType": "address",
          "name": "token_owner",
          "type": "address"
        },
        {
          "indexed": false,
          "internalType": "address",
          "name": "token_address",
          "type": "address"
        }
      ],
      "name": "CreateToken",
      "type": "event"
    },
    {
      "inputs": [
        {
          "internalType": "address",
          "name": "token_owner",
          "type": "address"
        },
        {
          "internalType": "string",
          "name": "token_name",
          "type": "string"
        }
      ],
      "name": "mint",
      "outputs": [
        {
          "internalType": "address",
          "name": "new_token_address",
          "type": "address"
        }
      ],
      "stateMutability": "nonpayable",
      "type": "function"
    },
    {
      "inputs": [],
      "name": "get_total_supply",
      "outputs": [
        {
          "internalType": "uint256",
          "name": "",
          "type": "uint256"
        }
      ],
      "stateMutability": "view",
      "type": "function",
      "constant": true
    },
    {
      "inputs": [],
      "name": "get_current_supply",
      "outputs": [
        {
          "internalType": "uint256",
          "name": "",
          "type": "uint256"
        }
      ],
      "stateMutability": "view",
      "type": "function",
      "constant": true
    }
  ],
  "bytecode": "0x60806040526000600155600a60025534801561001a57600080fd5b506110dd8061002a6000396000f3fe60806040523480156200001157600080fd5b5060043610620000465760003560e01c8063ad9e6b87146200004b578063d0def521146200006d578063f923058c14620000a3575b600080fd5b62000055620000c5565b604051620000649190620002fd565b60405180910390f35b6200008b6004803603810190620000859190620003f7565b620000cf565b6040516200009a919062000472565b60405180910390f35b620000ad620002ca565b604051620000bc9190620002fd565b60405180910390f35b6000600154905090565b6000600254600154106200011a576040517f08c379a00000000000000000000000000000000000000000000000000000000081526004016200011190620004f0565b60405180910390fd5b600073ffffffffffffffffffffffffffffffffffffffff16600084846040516200014692919062000555565b908152602001604051809103902060009054906101000a900473ffffffffffffffffffffffffffffffffffffffff1673ffffffffffffffffffffffffffffffffffffffff1614620001ce576040517f08c379a0000000000000000000000000000000000000000000000000000000008152600401620001c590620005c0565b60405180910390fd5b838383604051620001df90620002d4565b620001ed9392919062000626565b604051809103906000f0801580156200020a573d6000803e3d6000fd5b50905080600084846040516200022292919062000555565b908152602001604051809103902060006101000a81548173ffffffffffffffffffffffffffffffffffffffff021916908373ffffffffffffffffffffffffffffffffffffffff1602179055506001600081548092919062000283906200068b565b91905055507f62ec089d6c661de888091dd8fd0550160f8a27e337ad3f847b01a94d7064207f8482604051620002bb929190620006d8565b60405180910390a19392505050565b6000600254905090565b6109a2806200070683390190565b6000819050919050565b620002f781620002e2565b82525050565b6000602082019050620003146000830184620002ec565b92915050565b600080fd5b600080fd5b600073ffffffffffffffffffffffffffffffffffffffff82169050919050565b6000620003518262000324565b9050919050565b620003638162000344565b81146200036f57600080fd5b50565b600081359050620003838162000358565b92915050565b600080fd5b600080fd5b600080fd5b60008083601f840112620003b157620003b062000389565b5b8235905067ffffffffffffffff811115620003d157620003d06200038e565b5b602083019150836001820283011115620003f057620003ef62000393565b5b9250929050565b6000806000604084860312156200041357620004126200031a565b5b6000620004238682870162000372565b935050602084013567ffffffffffffffff8111156200044757620004466200031f565b5b620004558682870162000398565b92509250509250925092565b6200046c8162000344565b82525050565b600060208201905062000489600083018462000461565b92915050565b600082825260208201905092915050565b7f4572726f723a204d6178696d756d20746f6b656e206372656174656400000000600082015250565b6000620004d8601c836200048f565b9150620004e582620004a0565b602082019050919050565b600060208201905081810360008301526200050b81620004c9565b9050919050565b600081905092915050565b82818337600083830152505050565b60006200053a838562000512565b9350620005498385846200051d565b82840190509392505050565b6000620005648284866200052c565b91508190509392505050565b7f4572726f723a20546f6b656e206e616d65206e6f7420756e6971756500000000600082015250565b6000620005a8601c836200048f565b9150620005b58262000570565b602082019050919050565b60006020820190508181036000830152620005db8162000599565b9050919050565b6000601f19601f8301169050919050565b60006200060183856200048f565b9350620006108385846200051d565b6200061b83620005e2565b840190509392505050565b60006040820190506200063d600083018662000461565b818103602083015262000652818486620005f3565b9050949350505050565b7f4e487b7100000000000000000000000000000000000000000000000000000000600052601160045260246000fd5b60006200069882620002e2565b91507fffffffffffffffffffffffffffffffffffffffffffffffffffffffffffffffff8203620006cd57620006cc6200065c565b5b600182019050919050565b6000604082019050620006ef600083018562000461565b620006fe602083018462000461565b939250505056fe60806040523480156200001157600080fd5b50604051620009a2380380620009a283398181016040528101906200003791906200038b565b336000806101000a81548173ffffffffffffffffffffffffffffffffffffffff021916908373ffffffffffffffffffffffffffffffffffffffff16021790555081600160006101000a81548173ffffffffffffffffffffffffffffffffffffffff021916908373ffffffffffffffffffffffffffffffffffffffff1602179055508060029080519060200190620000d0929190620000d9565b50505062000455565b828054620000e79062000420565b90600052602060002090601f0160209004810192826200010b576000855562000157565b82601f106200012657805160ff191683800117855562000157565b8280016001018555821562000157579182015b828111156200015657825182559160200191906001019062000139565b5b5090506200016691906200016a565b5090565b5b80821115620001855760008160009055506001016200016b565b5090565b6000604051905090565b600080fd5b600080fd5b600073ffffffffffffffffffffffffffffffffffffffff82169050919050565b6000620001ca826200019d565b9050919050565b620001dc81620001bd565b8114620001e857600080fd5b50565b600081519050620001fc81620001d1565b92915050565b600080fd5b600080fd5b6000601f19601f8301169050919050565b7f4e487b7100000000000000000000000000000000000000000000000000000000600052604160045260246000fd5b62000257826200020c565b810181811067ffffffffffffffff821117156200027957620002786200021d565b5b80604052505050565b60006200028e62000189565b90506200029c82826200024c565b919050565b600067ffffffffffffffff821115620002bf57620002be6200021d565b5b620002ca826200020c565b9050602081019050919050565b60005b83811015620002f7578082015181840152602081019050620002da565b8381111562000307576000848401525b50505050565b6000620003246200031e84620002a1565b62000282565b90508281526020810184848401111562000343576200034262000207565b5b62000350848285620002d7565b509392505050565b600082601f83011262000370576200036f62000202565b5b8151620003828482602086016200030d565b91505092915050565b60008060408385031215620003a557620003a462000193565b5b6000620003b585828601620001eb565b925050602083015167ffffffffffffffff811115620003d957620003d862000198565b5b620003e78582860162000358565b9150509250929050565b7f4e487b7100000000000000000000000000000000000000000000000000000000600052602260045260246000fd5b600060028204905060018216806200043957607f821691505b6020821081036200044f576200044e620003f1565b5b50919050565b61053d80620004656000396000f3fe608060405234801561001057600080fd5b50600436106100415760003560e01c806310a576a6146100465780631a695230146100645780633a525c2914610080575b600080fd5b61004e61009e565b60405161005b91906102aa565b60405180910390f35b61007e600480360381019061007991906102f6565b6100c8565b005b6100886101d7565b60405161009591906103bc565b60405180910390f35b6000600160009054906101000a900473ffffffffffffffffffffffffffffffffffffffff16905090565b600160009054906101000a900473ffffffffffffffffffffffffffffffffffffffff1673ffffffffffffffffffffffffffffffffffffffff163373ffffffffffffffffffffffffffffffffffffffff1614610158576040517f08c379a000000000000000000000000000000000000000000000000000000000815260040161014f90610450565b60405180910390fd5b80600160006101000a81548173ffffffffffffffffffffffffffffffffffffffff021916908373ffffffffffffffffffffffffffffffffffffffff1602179055507f6dc96bb28019f8271320f6adb7b16d40350bcf0560cdf942b19726013d317c053382306040516101cc93929190610470565b60405180910390a150565b6060600280546101e6906104d6565b80601f0160208091040260200160405190810160405280929190818152602001828054610212906104d6565b801561025f5780601f106102345761010080835404028352916020019161025f565b820191906000526020600020905b81548152906001019060200180831161024257829003601f168201915b5050505050905090565b600073ffffffffffffffffffffffffffffffffffffffff82169050919050565b600061029482610269565b9050919050565b6102a481610289565b82525050565b60006020820190506102bf600083018461029b565b92915050565b600080fd5b6102d381610289565b81146102de57600080fd5b50565b6000813590506102f0816102ca565b92915050565b60006020828403121561030c5761030b6102c5565b5b600061031a848285016102e1565b91505092915050565b600081519050919050565b600082825260208201905092915050565b60005b8381101561035d578082015181840152602081019050610342565b8381111561036c576000848401525b50505050565b6000601f19601f8301169050919050565b600061038e82610323565b610398818561032e565b93506103a881856020860161033f565b6103b181610372565b840191505092915050565b600060208201905081810360008301526103d68184610383565b905092915050565b7f4f6e6c79206f776e65722063616e207472616e736665722074686520746f6b6560008201527f6e00000000000000000000000000000000000000000000000000000000000000602082015250565b600061043a60218361032e565b9150610445826103de565b604082019050919050565b600060208201905081810360008301526104698161042d565b9050919050565b6000606082019050610485600083018661029b565b610492602083018561029b565b61049f604083018461029b565b949350505050565b7f4e487b7100000000000000000000000000000000000000000000000000000000600052602260045260246000fd5b600060028204905060018216806104ee57607f821691505b602082108103610501576105006104a7565b5b5091905056fea26469706673582212203966713327127901c1afc79db721976fc7daf38eba283bce7dc5cf5b578b50e764736f6c634300080d0033a2646970667358221220949dad224cf2197cc001a9a90bcdc4c170ead20cd9f209d4ef4b12aebb7d4dcd64736f6c634300080d0033",
  "immutableReferences": {},
  "source": "// SPDX-License-Identifier: GPL-3.0\r\npragma solidity ^0.8.2;\r\n\r\nimport \"./Token.sol\";\r\n\r\ncontract TokenMinter{\r\n    mapping (string => address) private token_map;\r\n    uint private current_supply = 0;\r\n    uint private total_supply = 10;\r\n\r\n    event CreateToken(address token_owner, address token_address);\r\n\r\n    function mint(address token_owner, string calldata token_name) external returns (address new_token_address) {\r\n        require(current_supply < total_supply, \"Error: Maximum token created\");\r\n        require(token_map[token_name] == address(0), \"Error: Token name not unique\");\r\n        \r\n        new_token_address = address(new Token(token_owner, token_name));\r\n        token_map[token_name] = new_token_address;\r\n        current_supply++;\r\n\r\n        emit CreateToken(token_owner, new_token_address);\r\n    }\r\n\r\n    function get_total_supply() external view returns (uint) {\r\n        return total_supply;\r\n    }\r\n\r\n    function get_current_supply() external view returns (uint) {\r\n        return current_supply;\r\n    }\r\n}",
  "sourcePath": "D:\\git\\DemoSolidity\\TestBlockchain\\contracts\\TokenMinter.sol",
  "compiler": {
    "name": "solc",
    "version": "0.8.13+commit.abaa5c0e.Emscripten.clang"
  },
  "schemaVersion": "3.4.7",
  "updatedAt": "2022-04-26T10:01:02.582Z",
  "networkType": "ethereum",
  "devdoc": {
    "kind": "dev",
    "methods": {},
    "version": 1
  },
  "userdoc": {
    "kind": "user",
    "methods": {},
    "version": 1
  }
}