{
  "contractName": "Token",
  "abi": [
    {
      "inputs": [
        {
          "internalType": "address",
          "name": "owner",
          "type": "address"
        },
        {
          "internalType": "string",
          "name": "newname",
          "type": "string"
        }
      ],
      "stateMutability": "nonpayable",
      "type": "constructor"
    },
    {
      "anonymous": false,
      "inputs": [
        {
          "indexed": false,
          "internalType": "address",
          "name": "from",
          "type": "address"
        },
        {
          "indexed": false,
          "internalType": "address",
          "name": "to",
          "type": "address"
        },
        {
          "indexed": false,
          "internalType": "address",
          "name": "token_address",
          "type": "address"
        }
      ],
      "name": "TransferToken",
      "type": "event"
    },
    {
      "inputs": [
        {
          "internalType": "address",
          "name": "to",
          "type": "address"
        }
      ],
      "name": "transfer",
      "outputs": [],
      "stateMutability": "nonpayable",
      "type": "function"
    },
    {
      "inputs": [],
      "name": "get_name",
      "outputs": [
        {
          "internalType": "string",
          "name": "",
          "type": "string"
        }
      ],
      "stateMutability": "view",
      "type": "function"
    },
    {
      "inputs": [],
      "name": "get_current_owner",
      "outputs": [
        {
          "internalType": "address",
          "name": "",
          "type": "address"
        }
      ],
      "stateMutability": "view",
      "type": "function"
    }
  ],
  "bytecode": "0x60806040523480156200001157600080fd5b50604051620009a2380380620009a283398181016040528101906200003791906200038b565b336000806101000a81548173ffffffffffffffffffffffffffffffffffffffff021916908373ffffffffffffffffffffffffffffffffffffffff16021790555081600160006101000a81548173ffffffffffffffffffffffffffffffffffffffff021916908373ffffffffffffffffffffffffffffffffffffffff1602179055508060029080519060200190620000d0929190620000d9565b50505062000455565b828054620000e79062000420565b90600052602060002090601f0160209004810192826200010b576000855562000157565b82601f106200012657805160ff191683800117855562000157565b8280016001018555821562000157579182015b828111156200015657825182559160200191906001019062000139565b5b5090506200016691906200016a565b5090565b5b80821115620001855760008160009055506001016200016b565b5090565b6000604051905090565b600080fd5b600080fd5b600073ffffffffffffffffffffffffffffffffffffffff82169050919050565b6000620001ca826200019d565b9050919050565b620001dc81620001bd565b8114620001e857600080fd5b50565b600081519050620001fc81620001d1565b92915050565b600080fd5b600080fd5b6000601f19601f8301169050919050565b7f4e487b7100000000000000000000000000000000000000000000000000000000600052604160045260246000fd5b62000257826200020c565b810181811067ffffffffffffffff821117156200027957620002786200021d565b5b80604052505050565b60006200028e62000189565b90506200029c82826200024c565b919050565b600067ffffffffffffffff821115620002bf57620002be6200021d565b5b620002ca826200020c565b9050602081019050919050565b60005b83811015620002f7578082015181840152602081019050620002da565b8381111562000307576000848401525b50505050565b6000620003246200031e84620002a1565b62000282565b90508281526020810184848401111562000343576200034262000207565b5b62000350848285620002d7565b509392505050565b600082601f83011262000370576200036f62000202565b5b8151620003828482602086016200030d565b91505092915050565b60008060408385031215620003a557620003a462000193565b5b6000620003b585828601620001eb565b925050602083015167ffffffffffffffff811115620003d957620003d862000198565b5b620003e78582860162000358565b9150509250929050565b7f4e487b7100000000000000000000000000000000000000000000000000000000600052602260045260246000fd5b600060028204905060018216806200043957607f821691505b6020821081036200044f576200044e620003f1565b5b50919050565b61053d80620004656000396000f3fe608060405234801561001057600080fd5b50600436106100415760003560e01c806310a576a6146100465780631a695230146100645780633a525c2914610080575b600080fd5b61004e61009e565b60405161005b91906102aa565b60405180910390f35b61007e600480360381019061007991906102f6565b6100c8565b005b6100886101d7565b60405161009591906103bc565b60405180910390f35b6000600160009054906101000a900473ffffffffffffffffffffffffffffffffffffffff16905090565b600160009054906101000a900473ffffffffffffffffffffffffffffffffffffffff1673ffffffffffffffffffffffffffffffffffffffff163373ffffffffffffffffffffffffffffffffffffffff1614610158576040517f08c379a000000000000000000000000000000000000000000000000000000000815260040161014f90610450565b60405180910390fd5b80600160006101000a81548173ffffffffffffffffffffffffffffffffffffffff021916908373ffffffffffffffffffffffffffffffffffffffff1602179055507f6dc96bb28019f8271320f6adb7b16d40350bcf0560cdf942b19726013d317c053382306040516101cc93929190610470565b60405180910390a150565b6060600280546101e6906104d6565b80601f0160208091040260200160405190810160405280929190818152602001828054610212906104d6565b801561025f5780601f106102345761010080835404028352916020019161025f565b820191906000526020600020905b81548152906001019060200180831161024257829003601f168201915b5050505050905090565b600073ffffffffffffffffffffffffffffffffffffffff82169050919050565b600061029482610269565b9050919050565b6102a481610289565b82525050565b60006020820190506102bf600083018461029b565b92915050565b600080fd5b6102d381610289565b81146102de57600080fd5b50565b6000813590506102f0816102ca565b92915050565b60006020828403121561030c5761030b6102c5565b5b600061031a848285016102e1565b91505092915050565b600081519050919050565b600082825260208201905092915050565b60005b8381101561035d578082015181840152602081019050610342565b8381111561036c576000848401525b50505050565b6000601f19601f8301169050919050565b600061038e82610323565b610398818561032e565b93506103a881856020860161033f565b6103b181610372565b840191505092915050565b600060208201905081810360008301526103d68184610383565b905092915050565b7f4f6e6c79206f776e65722063616e207472616e736665722074686520746f6b6560008201527f6e00000000000000000000000000000000000000000000000000000000000000602082015250565b600061043a60218361032e565b9150610445826103de565b604082019050919050565b600060208201905081810360008301526104698161042d565b9050919050565b6000606082019050610485600083018661029b565b610492602083018561029b565b61049f604083018461029b565b949350505050565b7f4e487b7100000000000000000000000000000000000000000000000000000000600052602260045260246000fd5b600060028204905060018216806104ee57607f821691505b602082108103610501576105006104a7565b5b5091905056fea26469706673582212203966713327127901c1afc79db721976fc7daf38eba283bce7dc5cf5b578b50e764736f6c634300080d0033",
  "immutableReferences": {},
  "source": "// SPDX-License-Identifier: GPL-3.0\r\npragma solidity ^0.8.2;\r\n\r\nimport \"./TokenMinter.sol\";\r\n\r\ncontract Token {\r\n    TokenMinter private minter;\r\n    address private owner_id;\r\n    string private name;\r\n\r\n    constructor(address owner, string memory newname) {\r\n        minter = TokenMinter(msg.sender);\r\n        owner_id = owner;\r\n        name = newname;\r\n    }\r\n\r\n    event TransferToken(address from, address to, address token_address);\r\n\r\n    function transfer(address to) external {\r\n        require(msg.sender == owner_id, \"Only owner can transfer the token\");\r\n        owner_id = to;\r\n        emit TransferToken(msg.sender, to, address(this));\r\n    }\r\n\r\n    function get_name() external view returns (string memory) {\r\n        return name;\r\n    }\r\n\r\n    function get_current_owner() external view returns (address) {\r\n        return owner_id;\r\n    }\r\n}",
  "sourcePath": "D:\\git\\DemoSolidity\\TestBlockchain\\contracts\\Token.sol",
  "compiler": {
    "name": "solc",
    "version": "0.8.13+commit.abaa5c0e.Emscripten.clang"
  },
  "schemaVersion": "3.4.7",
  "updatedAt": "2022-04-26T10:00:46.401Z",
  "devdoc": {
    "kind": "dev",
    "methods": {},
    "version": 1
  },
  "userdoc": {
    "kind": "user",
    "methods": {},
    "version": 1
  }
}